:1000000040C064C063C062C061C060C05FC05EC009
:100010005DC029C25BC05AC059C058C057C056C045
:1000200055C06BC253C000000000370034003100DF
:1000300000000000380035003200000000003600EB
:100040003300300004040404040404040202020225
:10005000020203030303030301020408102040808B
:100060000102040810200102040810200000000012
:100070000000000000030406000000000000000073
:10008000F90411241FBECFE5D4E0DEBFCDBF10E0E0
:10009000A0E6B0E0ECE2FAE002C005900D92A237D3
:1000A000B107D9F721E0A2E7B0E001C01D92AE315F
:1000B000B207E1F710E0C1E4D0E003C02197FE01F0
:1000C000A9D4C034D107D1F73CD3AEC499CFCF92D5
:1000D000DF92EF92FF920F931F93CF93DF936C0108
:1000E0007A018B01C0E0D0E0CE15DF0589F0D801A0
:1000F0006D918D01D601ED91FC910190F081E02D83
:10010000C6010995892B11F47E0102C02196ECCF1E
:10011000C701DF91CF911F910F91FF90EF90DF907A
:10012000CF900895E0910D01F0910E01309729F0E4
:10013000109206011092050109940895CF93DF9360
:10014000AC01E0910F01F09110013097F1F0909126
:100150000801809107019817C0F090E0292F30E046
:100160002617370754F4D901AE58BF4FEA01C20F22
:10017000D31F88818C939F5FF1CF10920801609309
:100180000701CB01DF91CF910994DF91CF910895C1
:10019000843039F0863049F0833051F48FB58F7751
:1001A00002C08FB58F7D8FBD089585B58F7D85BDCC
:1001B00008951F93CF93DF93282F30E0F901E4597E
:1001C000FF4F8491F901E85AFF4FD491F901EC5B9C
:1001D000FF4FC491CC23C1F0162F8111D9DFEC2F32
:1001E000F0E0EE0FFF1FE05DFF4FA591B4918FB7D8
:1001F000F894111105C09C91ED2FE095E92302C000
:10020000EC91ED2BEC938FBFDF91CF911F9108956F
:10021000CF93DF9390E0FC01E85AFF4F2491FC015B
:10022000EC5BFF4F8491882361F190E0880F991F68
:10023000FC01EA5DFF4FC591D491FC01E05DFF4FE9
:10024000A591B491611109C09FB7F8948881209558
:1002500082238883EC912E230BC0623061F49FB718
:10026000F8943881822F809583238883EC912E2BFC
:100270002C939FBF06C08FB7F894E8812E2B28835C
:100280008FBFDF91CF9108953FB7F8948091FE0022
:100290009091FF00A0910001B091010122B708B632
:1002A00000FE05C02F3F19F00196A11DB11D3FBFF3
:1002B000BA2FA92F982F8827820F911DA11DB11D3C
:1002C000BC01CD0142E0660F771F881F991F4A9538
:1002D000D1F708958F929F92AF92BF92CF92DF9203
:1002E000EF92FF926B017C01CFDF4B015C01C114E7
:1002F000D104E104F104E9F0C7DFDC01CB01881986
:100300009909AA09BB09883E9340A105B10578F374
:1003100021E0C21AD108E108F10888EE880E83E0D6
:10032000981EA11CB11CC114D104E104F10421F7F1
:10033000DECFFF90EF90DF90CF90BF90AF909F9077
:100340008F90089585ED86BF06B604FCFDCF109210
:10035000040108954091B200262F30E0240F311D92
:1003600021323105DCF4209104012430C9F4FC0170
:1003700080E090E0861758F43091B2002191DC01C2
:10038000AE56BF4FA30FB11D2C930196F3CF8091B2
:10039000B200680F6093B20080E0089581E0089594
:1003A00082E008950895E091080180910701E8171F
:1003B00030F4F0E0EE58FF4F808190E008958FEF29
:1003C0009FEF08959091080180910701981750F4CC
:1003D000E92FF0E0EE58FF4F208130E09F5F9093CF
:1003E000080102C02FEF3FEFC901089581E191E0BC
:1003F000E9DF8295807F80931D0108958091070138
:1004000090E020910801821B91090895CF93DF931A
:1004100000D0CDB7DEB7CB01642F49835A839ADF72
:100420004981842F5A81952F0F900F90DF91CF91A2
:100430000895CF93DF931F92CDB7DEB7698361E054
:10044000CE01019687DF81E090E00F90DF91CF91A0
:1004500008956091600081E191E0EBDF8DE280938F
:1004600060000895DDD21F920F920FB60F921124F3
:100470002F933F938F939F93AF93BF938091FA00F5
:100480009091FB00A091FC00B091FD003091F9002B
:1004900023E0230F2D3720F40196A11DB11D05C0C7
:1004A00026E8230F0296A11DB11D2093F900809329
:1004B000FA009093FB00A093FC00B093FD008091A4
:1004C000FE009091FF00A0910001B0910101019602
:1004D000A11DB11D8093FE009093FF00A093000129
:1004E000B0930101BF91AF919F918F913F912F9157
:1004F0000F900FBE0F901F9018951F920F920FB67E
:100500000F9211242F933F934F935F936F937F9399
:100510008F939F93AF93BF93EF93FF9381B1887FA6
:10052000803609F499C068F5883209F45BC090F40C
:10053000803109F454C038F4882309F4EEC08830BF
:1005400009F44DC0EDC0883109F44CC0803209F483
:100550005CC0E6C0803409F466C048F4803309F416
:1005600054C0883309F0DCC08093D500D1C08035F9
:1005700009F44EC0883509F45BC0883409F0D0C056
:10058000CEC0883909F4C1C0A8F4883709F464C022
:1005900038F4883609F460C0803709F45DC0C0C003
:1005A000883809F4B2C0803909F45CC0803809F099
:1005B000B7C058C0803B09F481C038F4803A09F4D0
:1005C00062C0883A09F47AC0ABC0803C09F4A0C08C
:1005D000883C09F49DC0883B09F485C0A1C0809186
:1005E000F80010C09091F7008091F600981758F528
:1005F000E091F70081E08E0F8093F700F0E0EA527F
:10060000FF4F808183B985EC81C08093D50087C07E
:10061000E091F70081E08E0F8093F70083B1F0E066
:10062000EA52FF4F80839091F7008091F6006AC0F4
:10063000E091F70081E08E0F8093F70083B1F0E046
:10064000EA52FF4F808380910301811168C081E0ED
:100650008093020184EA5DC083E0809304011092DC
:10066000D400D1CF8091D400803208F04EC0E09108
:10067000D40081E08E0F8093D40083B1F0E0EC547D
:10068000FF4F8083C0CF85EC86BF1092040180911C
:10069000D400803230F4E091D400F0E0EC54FF4F0D
:1006A00010826091D40070E0E0910901F0910A019C
:1006B00084EB90E009951092D40032C084E08093DE
:1006C00004011092B3001092B200E0910B01F0917E
:1006D0000C0109958091B200811105C081E08093E1
:1006E000B20010929200E091B30081E08E0F8093EF
:1006F000B300F0E0EE56FF4F808183B99091B300D4
:100700008091B200981708F47ECF85E886BF08C0B4
:1007100085EC86BF1092040103C01092D50012DE52
:10072000FF91EF91BF91AF919F918F917F916F91C9
:100730005F914F913F912F910F900FBE0F901F909F
:100740001895789483B7826083BF83B7816083BF35
:1007500089B7816089BF1EBC8EB582608EBD8EB5A3
:1007600081608EBD8FB581608FBD85B5846085BD8C
:1007700085B5806485BD329A319A309A379A1AB815
:1007800061E082E045DD61E089E042DD61E083E037
:100790003FDD61E085E03CDD61E086E039DD60E081
:1007A00084E036DD60E089E004DD60E086E001DDC4
:1007B00060E085E0FEDC80E282B982E990E090931F
:1007C0000C0180930B018EE990E090930A018093D5
:1007D000090110920801109207011092060110926F
:1007E00005011092040181E080930301109202013F
:1007F00061E082E1DEDC61E083E1DBDC08980998FE
:1008000088E480B985E486BF89E292E090930E0186
:1008100080930D0186EF91E09093100180930F017A
:1008200060E7E62E60E0F62E7CE5C72E70E0D72E5E
:10083000E8E4AE2EE0E0BE2E88248394912C8091D3
:1008400060008D3259F061E070E080E090E042DDC0
:1008500080E090E0892B99F3D3DBEECFC0E0D0E0CD
:1008600020E5322E3AE5532E41E4442E00911D013D
:10087000C4010C2E01C0880F0A94EAF7082B60E02F
:1008800089E097DC97E0692E712C10E0B801062C06
:1008900002C0759567950A94E2F76170772782E048
:1008A00088DC61E083E085DC60E083E082DC81E07D
:1008B000681A710858F761E089E07BDC6AE070E053
:1008C00080E090E007DD61E086E073DC6AE070E0E4
:1008D00080E090E0FFDC60E086E06BDC07E010E0A9
:1008E000712CF7018491F6016490F5012490222087
:1008F00089F081114DDCE22DF0E0EE0FFF1FE65C88
:10090000FF4FA591B4918C91682231E009F430E059
:10091000832F02C080E090E0002E01C0880F0A946F
:10092000EAF7782A61E085E044DC60E085E041DCBC
:1009300001501109B0F6772009F455C0872D817058
:10094000209721F48823B1F08AE206C0C130D10596
:1009500031F4882399F087E38093600044C0C2306B
:10096000D10521F4882371F084E3F6CF882371F058
:1009700081E3F2CF71FE0EC080E3EECF71FE0EC0B8
:1009800088E3EACF71FE0EC085E3E6CF71FE0EC0AC
:1009900082E3E2CF72FE0EC083E2DECF72FE0EC0B3
:1009A00089E3DACF72FE0EC086E3D6CF72FE0EC0A8
:1009B00083E3D2CF73FE0FC084E4CECF73FE0BC0AF
:1009C00083E4CACF73FE07C082E4C6CF73FE03C0C0
:1009D0004092600008C074FE03C05092600003C0E3
:1009E00075FC309260002196C430D10509F03ECFED
:1009F0002ACFE1E1F1E01382128288EE93E0A0E0D9
:100A0000B0E084839583A683B78385E690E09183E5
:100A100080830895EE0FFF1F0590F491E02D099457
:0C0A200081E090E0F89400C0F894FFCF53
:100A2C002D0000000019020602FE01E201D301D2E2
:020A3C000100B7
:00000001FF
