:1000000040C064C063C062C061C060C05FC05EC009
:100010005DC065C35BC05AC059C058C057C056C008
:1000200055C0A7C353C000000000370034003100A2
:1000300000000000380035003200000000003600EB
:100040003300300004040404040404040202020225
:10005000020203030303030301020408102040808B
:100060000102040810200102040810200000000012
:100070000000000000030406000000000000000073
:10008000DD0411241FBECFE5D4E0DEBFCDBF10E0FC
:10009000A0E6B0E0EEEBFCE002C005900D92AE3BB6
:1000A000B107D9F721E0AEEBB0E001C01D92A53851
:1000B000B207E1F710E0C1E4D0E003C02197FE01F0
:1000C000F2D5C034D107D1F716D5F7C599CFCF9265
:1000D000DF92EF92FF920F931F93CF93DF936C0108
:1000E0007A018B01C0E0D0E0CE15DF0589F0D801A0
:1000F0006D918D01D601ED91FC910190F081E02D83
:10010000C6010995892B11F47E0102C02196ECCF1E
:10011000C701DF91CF911F910F91FF90EF90DF907A
:10012000CF900895E0915B01F0915C01309729F048
:10013000109252011092510109940895CF93DF93C8
:10014000AC01E0915901F0915A013097F1F0909192
:100150005401809153019817C0F090E0292F30E0AE
:100160002617370754F4D901A254BF4FEA01C20F32
:10017000D31F88818C939F5FF1CF109254016093BD
:100180005301CB01DF91CF910994DF91CF91089575
:10019000843039F0863049F0833051F48FB58F7751
:1001A00002C08FB58F7D8FBD089585B58F7D85BDCC
:1001B0000895CF93DF93282F30E0F901E459FF4FE2
:1001C0008491F901E85AFF4FD491F901EC5BFF4F9C
:1001D000C491CC2389F08111DBDFEC2FF0E0EE0F2E
:1001E000FF1FE65CFF4FA591B491EC91ED2381E0F8
:1001F00090E021F480E002C080E090E0DF91CF91B8
:1002000008951F93CF93DF93282F30E0F901E4592D
:10021000FF4F8491F901E85AFF4FD491F901EC5B4B
:10022000FF4FC491CC23C1F0162F8111B1DFEC2F09
:10023000F0E0EE0FFF1FE05DFF4FA591B4918FB787
:10024000F894111105C09C91ED2FE095E92302C0AF
:10025000EC91ED2BEC938FBFDF91CF911F9108951F
:10026000CF93DF9390E0FC01E85AFF4F2491FC010B
:10027000EC5BFF4F8491882361F190E0880F991F18
:10028000FC01EA5DFF4FC591D491FC01E05DFF4F99
:10029000A591B491611109C09FB7F8948881209508
:1002A00082238883EC912E230BC0623061F49FB7C8
:1002B000F8943881822F809583238883EC912E2BAC
:1002C0002C939FBF06C08FB7F894E8812E2B28830C
:1002D0008FBFDF91CF9108953FB7F89480914A0185
:1002E00090914B01A0914C01B0914D0122B708B6FD
:1002F00000FE05C02F3F19F00196A11DB11D3FBFA3
:10030000BA2FA92F982F8827820F911DA11DB11DEB
:10031000BC01CD0142E0660F771F881F991F4A95E7
:10032000D1F708958F929F92AF92BF92CF92DF92B2
:10033000EF92FF926B017C01CFDF4B015C01C11496
:10034000D104E104F104E9F0C7DFDC01CB01881935
:100350009909AA09BB09883E9340A105B10578F324
:1003600021E0C21AD108E108F10888EE880E83E086
:10037000981EA11CB11CC114D104E104F10421F7A1
:10038000DECFFF90EF90DF90CF90BF90AF909F9027
:100390008F9008954F925F926F927F928F929F926B
:1003A000AF92BF92DF92EF92FF920F931F93CF9382
:1003B000DF9300D000D01F92CDB7DEB7182F19827F
:1003C0001A821B821C821D8261E04ADF60E0812F5D
:1003D00018DF62E170E080E090E0A4DF61E0812F4F
:1003E00010DF8BE990E00197F1F760E0812F38DFB3
:1003F00051E1E52E57E2F52E812FDBDE892B39F412
:1004000081E0E81AF108C1F78EEF9FEF70C041E17B
:10041000E42E47E2F42E812FCCDE019729F481E00F
:10042000E81AF108C1F7F0CF28E2E22EF12C07E03C
:10043000D12CAA24A394B12C91E1892E97E2992E74
:10044000812FB7DE892B29F481E0881A9108C1F742
:10045000DBCF42DF2B013C0181E1882E87E2982E21
:10046000812FA7DE019729F481E0881A9108C1F74E
:10047000CBCF32DFDC01CB0184199509A609B7097E
:100480008997A105B10578F0E1E0F0E0EC0FFD1FE0
:10049000ED0DF11D2081C501002E01C0880F0A94C9
:1004A000EAF7822B8083011103C0D39407E001C0D7
:1004B000015081E0E81AF10809F0BECF8981282FA8
:1004C00030E030936C0120936B012B81422F50E080
:1004D00050936E0140936D01280F81E090E03D81C3
:1004E000321302C080E090E09195819591090F90C0
:1004F0000F900F900F900F90DF91CF911F910F9160
:10050000FF90EF90DF90BF90AF909F908F907F9083
:100510006F905F904F900895809183019091840136
:1005200097FF08C082E090E090938401809383015C
:100530001092820120918201809183019091840127
:10054000222329F0FC01E559FE4F858190E022CF5E
:1005500085ED86BF06B604FCFDCF109250010895CC
:100560004091FE00262F30E0240F311D213231054D
:10057000DCF4209150012430C9F4FC0180E090E0CB
:10058000861758F43091FE002191DC01A252BF4F32
:10059000A30FB11D2C930196F3CF8091FE00680F3D
:1005A0006093FE0080E0089581E0089582E0089560
:1005B0000895E091540180915301E81730F4F0E080
:1005C000E254FF4F808190E008958FEF9FEF0895F0
:1005D0009091540180915301981750F4E92FF0E065
:1005E000E254FF4F208130E09F5F9093540102C09E
:1005F0002FEF3FEFC90108958091530190E02091C2
:100600005401821B91090895CF93DF9300D0CDB799
:10061000DEB7CB01642F49835A83A2DF4981842F3F
:100620005A81952F0F900F90DF91CF910895CF931E
:10063000DF9300D0CDB7DEB78091610089838091D0
:1006400060008A8342E050E0BE016F5F7F4F8FE51C
:1006500091E0DADF0F900F90DF91CF910895CF9363
:10066000DF931F92CDB7DEB7698361E0CE010196BB
:1006700077DF81E090E00F90DF91CF910895909126
:10068000530180915401981741F18FE591E0A0DF6B
:10069000682F661F6627661F880F90E095958795DF
:1006A000009711F481E018C08130910511F480E0C9
:1006B00013C0823011F482E00FC0833011F488E05F
:1006C0000BC0843011F489E007C0853011F48AE052
:1006D00003C0863011F48BE094CD0895EAD21F92C6
:1006E0000F920FB60F9211242F933F938F939F93E6
:1006F000AF93BF938091460190914701A09148012B
:10070000B09149013091450123E0230F2D3720F4AA
:100710000196A11DB11D05C026E8230F0296A11D5B
:10072000B11D209345018093460190934701A0930A
:100730004801B093490180914A0190914B01A091E9
:100740004C01B0914D010196A11DB11D80934A014C
:1007500090934B01A0934C01B0934D01BF91AF9189
:100760009F918F913F912F910F900FBE0F901F90EF
:1007700018951F920F920FB60F9211242F933F934B
:100780004F935F936F937F938F939F93AF93BF9399
:10079000EF93FF9381B1887F803609F499C068F5A3
:1007A000883209F45BC090F4803109F454C038F405
:1007B000882309F4EEC0883009F44DC0EDC08831BB
:1007C00009F44CC0803209F45CC0E6C0803409F4FE
:1007D00066C048F4803309F454C0883309F0DCC0A3
:1007E00080932101D1C0803509F44EC0883509F4C9
:1007F0005BC0883409F0D0C0CEC0883909F4C1C0CC
:10080000A8F4883709F464C038F4883609F460C065
:10081000803709F45DC0C0C0883809F4B2C080399F
:1008200009F45CC0803809F0B7C058C0803B09F4B7
:1008300081C038F4803A09F462C0883A09F47AC079
:10084000ABC0803C09F4A0C0883C09F49DC0883B43
:1008500009F485C0A1C08091440110C0909143016A
:1008600080914201981758F5E091430181E08E0F85
:1008700080934301F0E0EE5DFE4F808183B985EC0B
:1008800081C08093210187C0E091430181E08E0FF8
:100890008093430183B1F0E0EE5DFE4F8083909141
:1008A0004301809142016AC0E091430181E08E0FD3
:1008B0008093430183B1F0E0EE5DFE4F8083809131
:1008C0004F01811168C081E080934E0184EA5DC0D0
:1008D00083E08093500110922001D1CF80912001BC
:1008E000803208F04EC0E091200181E08E0F8093AD
:1008F000200183B1F0E0E050FF4F8083C0CF85EC52
:1009000086BF1092500180912001803230F4E09136
:100910002001F0E0E050FF4F10826091200170E074
:10092000E0915501F091560180E091E00995109217
:10093000200132C084E0809350011092FF00109299
:10094000FE00E0915701F091580109958091FE0059
:10095000811105C081E08093FE001092DE00E091DD
:10096000FF0081E08E0F8093FF00F0E0E252FF4F26
:10097000808183B99091FF008091FE00981708F460
:100980007ECF85E886BF08C085EC86BF10925001F7
:1009900003C010922101DCDDFF91EF91BF91AF9177
:1009A0009F918F917F916F915F914F913F912F9187
:1009B0000F900FBE0F901F9018954F925F926F92FD
:1009C0007F92AF92BF92CF92DF92EF92FF920F93FE
:1009D0001F93CF93DF93E5E7F0E08EE0A82EA1828E
:1009E0009FE0B92EB28220E1C22EC38232E0D32E24
:1009F000D48243E0E42EE58254E0F52EF682D5E081
:100A0000D783CDE0C087B6E0B187A286B386C4861F
:100A1000D586E686F786D08BC18BB28BE2E6F0E016
:100A2000A1E1A18372E1728363E1638357E05483A0
:100A300049E0458338E036832AE027839CE09087AD
:100A40008BE08187A28773876487558746873787BE
:100A5000208B918B828BEFE5F1E01382128218EEEE
:100A6000412E13E0512E612C712C448255826682F6
:100A7000778202EB10E011830083EBE9F0E0A182C2
:100A8000B282C382D482E582F682D783C087B187DF
:100A9000A286B386C486D586E686F786D08BC18BC0
:100AA000B28BE8E8F0E0A1837283638354834583CB
:100AB0003683278390878187A287738764875587CA
:100AC00046873787208B918B828BEBE6F1E082E0C3
:100AD00090E0918F808F178ADF91CF911F910F91B6
:100AE000FF90EF90DF90CF90BF90AF907F906F908E
:100AF0005F904F900895789483B7826083BF83B7E7
:100B0000816083BF89B7816089BF1EBC8EB582605A
:100B10008EBD8EB581608EBD8FB581608FBD85B570
:100B2000846085BD85B5806485BD329A319A309ADE
:100B3000379A1AB80FB6F894A89581B5886181BD27
:100B400011BC0FBE82E282B982E990E09093580115
:100B5000809357018EE990E0909356018093550160
:100B600010925401109253011092520110925101AF
:100B70001092500181E080934F0110924E0161E08C
:100B800082E13FDB61E083E13CDB0898099888E47F
:100B900080B985E486BF8FE393E090935A018093F8
:100BA000590187E193E090935C0180935B0161E0E0
:100BB00081E056DB61E080E053DB61E082E050DB06
:100BC00061E088E04DDB61E089E04ADB61E08AE0DA
:100BD00047DB61E08BE044DB61E08CE041DB60E01F
:100BE00081E00FDB60E080E00CDB60E082E009DBAD
:100BF00060E088E006DB60E089E003DB60E08AE03B
:100C000000DB60E08BE0FDDA60E08CE0FADA00E027
:100C100010E083E0E82EF12C94E0C92ED12CC4E63C
:100C200080915D0190915E010196A895893823E13C
:100C3000920728F490935E0180935D0129C0109281
:100C40005E0110925D01F0928401E09283011092A6
:100C5000820162DC892B29F480916D01809361000F
:100C600002C0C09361006AE070E080E090E05ADB6F
:100C7000D0928401C0928301109282014DDC892BB5
:100C800029F480916D018093600002C0C0936000E0
:100C900061E070E080E090E045DB0115110509F4AA
:100CA000BFCFAED9BDCFEE0FFF1F0590F491E02D61
:0E0CB000099481E090E0F89400C0F894FFCF22
:100CBE00636342000000000000000000000000001E
:100CCE0000000000004100000000000000000000D5
:100CDE0000000000000000004200000000000000C4
:100CEE0000000000000000000000004100000000B5
:100CFE0000000000000000000000000000000000E6
:0E0D0E0000002F030403FC02E802D902D80201
:00000001FF
