:100000000C9473000C949B000C949B000C94910432
:100010000C9491040C9491040C949B000C949B0000
:100020000C949B000C949B000C949B000C949B00E4
:100030000C949B000C949B000C949B000C949B00D4
:100040000C94E1030C949B000C9439030C9413035F
:100050000C949B000C949B000C949B000C949B00B4
:100060000C949B000C949B00D508E0080C09170920
:1000700057096209450A6F0A7A0A620B860BAD0BB3
:10008000C10BCB0BD80CA90D0000000023002600EB
:10009000290000000000240027002A0000000000C2
:1000A000250028002B0004040404040404040202B4
:1000B00002020202030303030303010204081020E7
:1000C00040800102040810200102040810200000F2
:1000D0000008000201000003040700000000000007
:1000E0000000C40DB80D11241FBECFEFD8E0DEBF55
:1000F000CDBF11E0A0E0B1E0EEEEF1E202C005906C
:100100000D92A03EB107D9F723E0A0EEB1E001C007
:100110001D92AE38B207E1F710E0C2E7D0E004C0AC
:100120002197FE010E94480EC137D107C9F70E94EE
:1001300077070C94EA100C940000FC01918D828DDD
:10014000981761F0828DDF01A80FB11D5D968C912B
:10015000928D9F5F9F73928F90E008958FEF9FEF36
:100160000895FC01918D828D981731F0828DE80FF2
:10017000F11D858D90E008958FEF9FEF0895FC01AC
:10018000918D228D892F90E0805C9F4F821B910979
:100190008F739927089589EA92E00E94BF0021E0B9
:1001A000892B09F420E0822F0895FC01848DDF0162
:1001B000A80FB11DA35ABF4F2C91848D90E00196DA
:1001C0008F739927848FA689B7892C93A089B189C9
:1001D0008C9180648C93938D848D981306C00288D3
:1001E000F389E02D80818F7D80830895EF92FF92C7
:1001F0000F931F93CF93DF93EC0181E0888F9B8D4A
:100200008C8D981305C0E889F989808185FD24C00B
:10021000F62E0B8D10E00F5F1F4F0F731127E02E8E
:100220008C8DE8120CC00FB607FCFACFE889F9896B
:10023000808185FFF5CFCE010E94D500F1CF8B8D57
:10024000FE01E80FF11DE35AFF4FF0820B8FEA89A0
:10025000FB898081806207C0EE89FF896083E8891D
:10026000F98980818064808381E090E0DF91CF9183
:100270001F910F91FF90EF900895CF93DF93EC01C2
:10028000888D8823C9F0EA89FB89808185FD05C0B6
:10029000A889B9898C9186FD0FC00FB607FCF5CFF0
:1002A000808185FFF2CFA889B9898C9185FFEDCF38
:1002B000CE010E94D500E7CFDF91CF91089580E075
:1002C00090E0892B29F00E94CB0081110C94000052
:1002D000089590E0FC01E253FF4F3491FC01E65495
:1002E000FF4F2491FC01EA55FF4FE491EE2309F4FE
:1002F0003BC0332339F1333091F038F43130A9F079
:10030000323001F584B58F7D12C0373091F038302E
:10031000A1F03430B9F4809180008F7D03C08091CA
:1003200080008F77809380000DC084B58F7784BD67
:1003300009C08091B0008F7703C08091B0008F7D9D
:100340008093B000F0E0EE0FFF1FE456FF4FA59141
:10035000B4918FB7F894EC91611103C020952E23CE
:1003600001C02E2B2C938FBF08953FB7F894809136
:10037000A5029091A602A091A702B091A80226B56D
:10038000A89B05C02F3F19F00196A11DB11D3FBFCD
:10039000BA2FA92F982F8827820F911DA11DB11D5B
:1003A000BC01CD0142E0660F771F881F991F4A9557
:1003B000D1F7089520919E0230919F0228173907A6
:1003C00081F490919D0280919C02981751F0E091E8
:1003D0009D02F0E0EE0FFF1FE45EFD4F80819181F2
:1003E00008958FEF9FEF08950895EF92FF920F9376
:1003F0001F93CF93DF93DC015C962D913C915D9729
:100400002115310539F481E090E013969C938E9389
:10041000129740C05196ED91FC91529750969C9145
:100420005097892F8095FFB65E964C915E9741FB61
:10043000EE24E0F841FF02C060957095F894408189
:10044000EE2011F0492B01C048234083E901219798
:10045000F1F749E0508160FF02C0592B01C05823D9
:100460005083E9012197F1F776956795415091F70F
:10047000EE2021F090818923808303C08081982B16
:100480009083FFBE5C968D919C915D970197F1F7EB
:1004900021E030E0C901DF91CF911F910F91FF90D2
:1004A000EF9008951F93CF93DF93DC015C962D911D
:1004B0003C915D972115310539F481E090E0139668
:1004C0009C938E9312973DC05196ED91FC9152975B
:1004D00050969C915097892F80951FB75E964C91AE
:1004E0005E9741FB772770F941FD6095F894408154
:1004F000772311F0492B01C048234083E90121975C
:10050000F1F748E0508160FF02C0592B01C0582329
:100510005083E9012197F1F76695415099F77723C8
:1005200021F090818923808303C08081982B908360
:100530001FBF5C968D919C915D970197F1F721E02B
:1005400030E0C901DF91CF911F91089520919E0263
:1005500030919F022817390771F480919C022091F5
:100560009D0290E0805C9F4F821B910960E470E0E7
:100570000E94120E089580E090E0089520919E025E
:1005800030919F0228173907C9F490919D028091FC
:100590009C02981799F0E0919D02F0E0EE0FFF1F8A
:1005A000E45EFD4F8081918120919D0230E02F5FBC
:1005B0003F4F2F73332720939D0208958FEF9FEFB6
:1005C00008952CE031E0FC0131832083E0919E020C
:1005D000F0919F02E817F90759F4A389B4899C9117
:1005E0008589809589238C9310929F0210929E0298
:1005F000089590E0FC01EA55FF4FE491F0E0EE0F22
:10060000FF1FE456FF4FA591B4913C91FC01E654C5
:10061000FF4F615028F02491232B2C933C93F9CF6A
:1006200008950E9459101F920F920FB60F92112435
:100630002F933F934F935F936F937F938F939F93EA
:10064000AF93BF93EF93FF9389EA92E00E94D500A6
:10065000FF91EF91BF91AF919F918F917F916F919A
:100660005F914F913F912F910F900FBE0F901F9070
:1006700018951F920F920FB60F9211242F938F93FC
:100680009F93EF93FF93E091B902F091BA028081BA
:10069000E091BF02F091C00282FD12C09081809172
:1006A000C2028F5F8F732091C302821751F0E091D5
:1006B000C202F0E0E755FD4F958F8093C20201C062
:1006C0008081FF91EF919F918F912F910F900FBE9D
:1006D0000F901F901895CF93DF9390E0FC01E654A4
:1006E000FF4F2491FC01EA55FF4F8491882361F16B
:1006F00090E0880F991FFC01EE56FF4FC591D491F1
:10070000FC01E456FF4FA591B491611109C09FB758
:10071000F8948881209582238883EC912E230BC046
:10072000623061F49FB7F8943881822F80958323DB
:100730008883EC912E2B2C939FBF06C08FB7F89423
:10074000E8812E2B28838FBFDF91CF9108958F9260
:100750009F92AF92BF92CF92DF92EF92FF926B0186
:100760007C010E94B5014B015C01C114D104E1047C
:10077000F104F1F00E94B501DC01CB01881999095F
:10078000AA09BB09883E9340A105B10570F321E099
:10079000C21AD108E108F10888EE880E83E0981E9D
:1007A000A11CB11CC114D104E104F10419F7DDCF7F
:1007B000FF90EF90DF90CF90BF90AF909F908F9081
:1007C00008951F920F920FB60F9211242F933F930B
:1007D0008F939F93AF93BF938091A1029091A202B8
:1007E000A091A302B091A4023091A00223E0230FB4
:1007F0002D3720F40196A11DB11D05C026E8230F59
:100800000296A11DB11D2093A0028093A102909396
:10081000A202A093A302B093A4028091A50290919A
:10082000A602A091A702B091A8020196A11DB11D38
:100830008093A5029093A602A093A702B093A8026A
:10084000BF91AF919F918F913F912F910F900FBECC
:100850000F901F9018950F931F93CF93DF93EC0188
:10086000162F042F1B821A8288EE93E0A0E0B0E0DE
:100870008C839D83AE83BF838CE091E099838883D2
:100880001F8A1E8A198E188E1B8E1A8E1D8E1C8E24
:100890006E8D6E7F20FB61F96E8F6695617081E0D1
:1008A0006827842F0E94690161E0802F0E946B03FA
:1008B000402F50E0FA01E654FF4FE491E88BFA0133
:1008C000EA55FF4FE491F0E0EE0FFF1FE456FF4FB3
:1008D000859194919A8B898B60E0812F0E946B03A4
:1008E0008E8D81FD04C061E0812F0E9469011C870B
:1008F000612F70E0FB01E654FF4FE491ED87FB01AF
:10090000EA55FF4FE491F0E0EE0FFF1FE857FF4F6D
:10091000859194919F878E87DF91CF911F910F9141
:1009200008951F920F920FB60F921124FF920F930A
:100930001F932F933F934F935F936F937F938F9367
:100940009F93AF93BF93CF93DF93EF93FF93C091A8
:100950009E02D0919F02209709F467C09E8DEE857C
:10096000FF858D8591FF04C09081892329F45DC0A6
:100970009081892309F059C0EB89FC8990818D8988
:100980008095892380838E899F8988970197F1F7C5
:1009900065E08CE00E94F90239E0F32E00E010E0FF
:1009A000888D998D49970197F1F71695079565E020
:1009B0008CE00E94F902EE85FF8590818D85892368
:1009C00009F01160FA94F110EBCF8E8D81FF02C017
:1009D0000095109580919C0290E001968F73992765
:1009E00020919D02281761F0E0919C02F0E0EE0F4B
:1009F000FF1FE45EFD4F1183008380939C0207C0BC
:100A000065E08BE00E94F9028E8D81608E8F8A8D69
:100A10009B8D0197F1F761E08BE00E94F902EB8971
:100A2000FC8990818D89892B8083FF91EF91DF91E3
:100A3000CF91BF91AF919F918F917F916F915F9176
:100A40004F913F912F911F910F91FF900F900FBEEB
:100A50000F901F901895CF93DF93FC01828D938D9B
:100A6000892B31F1A0919E02B0919F02AE17BF0772
:100A7000F9F0109751F05396CD91DC9154979881ED
:100A800055968C91809589238883868D8E7F868F5D
:100A900010929C0210929D02F0939F02E0939E029E
:100AA000A389B4899C918589892B8C9381E001C0AD
:100AB00080E0DF91CF910895BC018CE493E00C9429
:100AC000F5018BE693E00E94BE021092E1011092C4
:100AD000E00191700895CF92DF92EF92FF920F9311
:100AE0001F93CF93DF936C017A018B01C0E0D0E0BC
:100AF000CE15DF0589F0D8016D918D01D601ED91FC
:100B0000FC910190F081E02DC6010995892B11F42B
:100B10007E0102C02196ECCFC701DF91CF911F91DA
:100B20000F91FF90EF90DF90CF900895009769F0BC
:100B3000FC0101900020E9F73197AF01481B590BE8
:100B4000BC0189EA92E00C946B0580E090E0089586
:100B5000CF93DF930E949605EC018CE691E00E9412
:100B600096058C0F9D1FDF91CF910895CF93DF9352
:100B7000EC011B8E1A8E198E188E1F8A1E8A8DE923
:100B800091E09D8F8C8F8C85863108F04DC02DEBC8
:100B900030E03F8B2E8B2BE931E0398F288F2CE210
:100BA00031E03B8F2A8F90916800883050F021E02F
:100BB0008E3008F420E081E001C0880F2A95EAF722
:100BC00001C084E0892B809368008C85883038F0E0
:100BD0008E3040F0863148F020E030E008C02DE64D
:100BE00030E005C02BE630E002C02CE630E03C8B64
:100BF0002B8B883030F491E001C0990F8A95EAF789
:100C00000EC0282F30E08E3018F42850310902C071
:100C10002E50310991E001C0990F2A95EAF79D8B7A
:100C20008C8D9D8D0197F1F761E08BE00E946B0345
:100C300061E08CE00E946B03CE01DF91CF910C94B8
:100C40002B05E091A902F091AA020190F081E02D1C
:100C5000682F89EA92E009940C9496058F929F92EE
:100C6000AF92BF920F931F93CF93DF93CDB7DEB7B1
:100C7000A1970FB6F894DEBF0FBECDBF19A24230C8
:100C800008F44AE08E010F5D1F4F842E912CA12C99
:100C9000B12CA50194010E94260EE62FB901CA01CC
:100CA00001501109EA3014F4E05D01C0E95CD8019B
:100CB000EC93232B242B252B61F7C8010E9496056A
:100CC000A1960FB6F894DEBF0FBECDBFDF91CF91D6
:100CD0001F910F91BF90AF909F908F900895CF93E9
:100CE000DF93BC0180E090E04AE00E942E06EC0118
:100CF0008CE691E00E9496058C0F9D1FDF91CF91AD
:100D00000895CF92DF92EF92FF92CF93DF936C0121
:100D1000990FEE08FF08F7FE12C08DE20E9421062F
:100D2000EC0166277727CB016C197D098E099F0995
:100D30004AE00E942E067C01EC0EFD1E06C04AE031
:100D4000C701B6010E942E067C018CE691E00E944C
:100D500096058E0D9F1DDF91CF91FF90EF90DF9054
:100D6000CF9008950F931F93CF93DF93EC01888169
:100D70009981009729F02A813B812617370788F44B
:100D80008B016F5F7F4F0E948F0F009761F09983F7
:100D900088831B830A832C813D81232B11F4FC0162
:100DA000108281E001C080E0DF91CF911F910F910F
:100DB0000895CF93DF93EC0188819981009711F01A
:100DC0000E94F70E198218821D821C821B821A82D1
:100DD000DF91CF910895EF92FF920F931F93CF93DE
:100DE000DF93EC017B018A01BA010E94B2068111F6
:100DF00004C0CE010E94D90607C01D830C83B70131
:100E0000888199810E947010CE01DF91CF911F914E
:100E10000F91FF90EF900895FC01808191810C94D7
:100E2000F70EFC0111821082138212821582148245
:100E30006115710551F0FB0101900020E9F7319730
:100E4000AF01461B570B0C94EB060895DF92EF920F
:100E5000FF920F931F93CF93DF937C01EB018A01E5
:100E60004617570720F48D2FEA01062F182F6EE63C
:100E700071E0C7010E94110780914A0390914B03D2
:100E8000C817D90758F58017910708F48C01E0912D
:100E90004603F0914703E00FF11FD080108260916C
:100EA0004603709147036C0F7D1F6115710561F05A
:100EB000FB0101900020E9F73197AF01461B570B6A
:100EC000C7010E94EB0603C0C7010E94D906E0914A
:100ED0004603F0914703E00FF11FD082C701DF9175
:100EE000CF911F910F91FF90EF90DF900895CF93D6
:100EF000DF93CDB7DEB7CF55D1090FB6F894DEBF7B
:100F00000FBECDBF789484B5826084BD84B5816006
:100F100084BD85B5826085BD85B5816085BD8091C4
:100F20006E00816080936E0010928100809181003C
:100F30008260809381008091810081608093810034
:100F4000809180008160809380008091B1008460F6
:100F50008093B1008091B00081608093B000809157
:100F60007A00846080937A0080917A008260809316
:100F70007A0080917A00816080937A0080917A0073
:100F8000806880937A001092C100E091B902F091DC
:100F9000BA0282E08083E091B502F091B60210823D
:100FA000E091B702F091B8028FEC80831092C102F9
:100FB000E091BD02F091BE0286E08083E091BB0229
:100FC000F091BC02808180618083E091BB02F0914E
:100FD000BC02808188608083E091BB02F091BC02FA
:100FE000808180688083E091BB02F091BC028081A7
:100FF0008F7D80838BE693E00E94B6058CE493E0BE
:101000000E94B6058BE693E00E942B0510921A020F
:101010001092190260ED77E080E090E00E94A70353
:101020008FE491E00E94A8059E01235F3F4F6596E3
:101030003FAF2EAF6597225E3F4F67963FAF2EAF13
:1010400067971E0137E2230E311C2E0185E2480E00
:10105000511CCC24CA94DC2C5E019FE2A90EB11C69
:1010600011E080911B02811162C068EE73E080E0A4
:1010700090E00E94A70389EA92E00E94BF00892BBA
:1010800081F389EA92E00E949D008D3251F710931E
:101090001B02E7CF89EA92E00E949D00982E0E94F1
:1010A00021061A8219821C821B821E821D82609177
:1010B0004603709147036115710509F440C04091E2
:1010C0004A0350914B03CE0101960E94EB066296B3
:1010D0009FAE629763961FAE63970D811E810F5F6F
:1010E0001F4FB801CE0101960E94B206882361F11C
:1010F00029813A818D819E81BE016F5A7F4F820F77
:10110000931F0E9470101E830D8369817A8161157F
:101110007105F9F04D815E8186E493E00E94EB0653
:10112000CE0101960E940C07EDE29E16B9F089EA05
:1011300092E00E94BF00892B09F0ACCF0FC0CE0116
:1011400001960E94D906C3CFCE0101960E94D9060E
:10115000DCCF86E493E00E94D906E2CF6AE070E03B
:1011600080E090E00E94A7038091E0019091E1016E
:1011700001968536910528F49093E1018093E00172
:1011800008C01092E1011092E00110921A02109230
:101190001902E0911902F0911A02E031F10508F00C
:1011A000E4C4EC5CFF4F0C94480E88E091E00E9490
:1011B0005C0588E090E00E945C0581E090E0D1C48D
:1011C0008BE693E00E94A602181619060CF0CDC417
:1011D0000E9461058115914019F482E090E0C1C43C
:1011E00010921A021092190280911702909118021F
:1011F00001969093180280931702853691050CF49E
:10120000B4C482E491E00E94A80568E873E180E03C
:1012100090E00E94A703F5CF8BE091E00E945C056F
:101220008BE090E00E945C0583E090E09AC48BE63E
:1012300093E00E94DA0191708115914079F40E9447
:10124000610582E090E090931A028093190262E3B4
:1012500070E080E090E00E94A70387C48BE693E0F3
:101260000E94A60202970CF480C40E9461058C01C2
:101270009A8389830E9461059C838B8301151105E4
:1012800069F48115914009F0FBC08DE491E00E9462
:10129000A80580E091E00E945C0577C20B30110543
:1012A00009F0EEC08B30914009F0EAC0EECF89E042
:1012B00091E00E945C0589E090E00E945C0585E079
:1012C00090E04FC48BE693E00E94A60248970CF48E
:1012D0004CC48E010F5F1F4F4E01F1E38F0E911C26
:1012E00038010E946105F301819391933F01E81554
:1012F000F905B9F780E090E00A151B0539F0F8010F
:10130000219131918F01820F931FF6CF99272FA53D
:1013100038A933278217930709F0AEC080E091E027
:101320000E945C0586E090E090931A028093190277
:1013300085E591E00E942C0689819A810E946F06C2
:101340008B81F82EE12C87FF03C08AE591E002C073
:1013500080E691E00E942C068D819E818E299F2936
:101360000E946F0686E691E00E942C066F816093D2
:10137000010170E080E090E04AE00E942E068CE6D9
:1013800091E00E9496058FE691E00E942C06698507
:101390006093000170E080E090E04AE00E942E0639
:1013A0008CE691E00E949605FB856996FFAF6997F0
:1013B00068961FAE68970D851E8569962EAD3FAD68
:1013C0006997022B132B812C912CC801082C02C089
:1013D000969587950A94E2F780FF07C085E791E02C
:1013E0000E942C06C4010E9481063FEF831A930AD3
:1013F00080E18816910449F780900101912C0091B9
:10140000110210911202B0911302A0911402709176
:10141000150260911602FE013F9680E090E0419136
:10142000519141155105B9F0489D9001499D300DEC
:10143000589D300D11242436310519F4782F692F69
:101440000AC02233310519F4B82FA92F04C029315D
:10145000310509F48C0101968031910501F7009363
:10146000110210931202B0931302A093140270930E
:1014700015026093160279C38AE791E00E94A805DD
:101480008AEA90E00E945C0570C389818093FB0129
:101490009B816D969FAF6D976C961FAE6C978D81FB
:1014A0009E816D962EAD3FAD6D97822B932B9093C1
:1014B000FD018093FC018F818093FE0189858093DB
:1014C000FF018D8580930002FE013F96A1E0B2E00E
:1014D000808132968D93EA15FB05D1F782C28AE0AE
:1014E00091E00E945C058AE090E00E945C0588E043
:1014F00090E037C38BE693E00E94A60243970CF47A
:1015000034C38E010F5F1F4F48010E946105F40133
:10151000819391934F01E215F305B9F780E090E0D4
:101520000415150539F0F801219131918F01820FD1
:10153000931FF6CF99272DA13EA13327821793073A
:1015400009F09ACF80E090E00E945C0589E090E08D
:1015500090931A0280931902F9816B96FFAF6B97F3
:101560006A961FAE6A970B811C816B962EAD3FADBC
:101570006B97022B132B812C912CC801082C02C0D5
:10158000969587950A94E2F780FF2EC08091150208
:10159000909116028816990629F4D092FA01C09209
:1015A000F90117C0809113029091140288169906D0
:1015B00029F4D092F801C092F7010BC0809111027A
:1015C000909112028816990621F4D092F601C092E9
:1015D000F5018091F401811107C082E891E00E9439
:1015E0002C06C4010E9481063FEF831A930A80E112
:1015F0008816910411F6FE0135964F01612C712C6D
:10160000F401019111914F010115110509F444C034
:1016100080911502909116026816790681F48091E6
:10162000F401811107C088E891E00E942C06C801EE
:101630000E946F061093FA010093F9012DC080916A
:101640001302909114026816790681F48091F401D6
:10165000811107C082E991E00E942C06C8010E9416
:101660006F061093F8010093F70116C080911102E4
:10167000909112026816790679F48091F401811133
:1016800007C08CE991E00E942C06C8010E946F06F9
:101690001093F6010093F501FFEF6F1A7F0A20E126
:1016A0006216710409F0ACCF8091F401833009F027
:1016B0005CC28CE090E090931A0280931902109221
:1016C000F40153C239816F963FAF6F976E961FAE8C
:1016D0006E978B819C816F962EAD3FAD6F97822B5D
:1016E000932B9093E3018093E201FE013596A4EEE3
:1016F000B1E0808132968D9367962EAD3FAD6797AE
:10170000E217F307B1F78AE090E02BC28CE091E09A
:101710009A8389838CE090E09C838B838FEF90E0A9
:101720009E838D8398878F839A87898785E190E050
:101730009C878B878E010F5F1F4FF80181919191DC
:101740008F010E945C0565962EAD3FAD659702172F
:10175000130799F78BE090E004C20E9461059A8319
:1017600089838115914019F48CE090E0FAC18AE7F1
:1017700091E00E94A8058091190290911A020197A8
:10178000F0C186EA91E00E94A8058091190290912B
:101790001A020196E6C16EEA71E0CE0101960E943E
:1017A000110720914A0330914B034D815E8124172C
:1017B0003507A0F08091460390914703009771F0A0
:1017C00069817A816115710549F0241B350B820FFF
:1017D000931F0E94671011E0892B09F010E0CE01E1
:1017E00001960E940C07112309F4D7C044E050E091
:1017F00060E070E0CE0101960E9426078D819E81F7
:10180000892B49F060EB71E089819A810E94671011
:1018100011E0892B09F010E0CE0101960E940C071F
:10182000112309F477C081E08093F40146E050E091
:1018300064E070E0CE0101960E94260789819A81BA
:10184000009721F00E947710162F01C010E0CE0102
:1018500001960E940C074AE050E067E070E0CE017C
:1018600001960E94260789819A81009719F00E94AB
:10187000771001C060E0CE010196A0966FAFA097EF
:101880000E940C07A0966FADA097643669F4009192
:1018900015028091F9019091FA01811B91099093B1
:1018A000FA018093F9011FC0623369F400911302B9
:1018B0008091F7019091F801811B91099093F801B3
:1018C0008093F70110C0693169F400911102809191
:1018D000F5019091F601811B91099093F601809397
:1018E000F50101C000E01295107F102B8DE091E012
:1018F0000E945C05012F10E0C8010E945C05C80130
:101900000D960E945C058EE090E090931A02809301
:1019100019023AC044E050E060E070E0CE01019668
:101920000E9426078D819E81892B51F065EB71E025
:1019300089819A810E94671011E0892B09F010E0DB
:10194000CE0101960E940C071123F1F088E891E086
:101950000E942C068091F9019091FA010E946F0675
:1019600082E991E00E942C068091F7019091F801A4
:101970000E946F068CE991E00E942C068091F5018F
:101980009091F6010E946F0640E050E06EE671E033
:1019900086E493E00E94EB06E8C08BE091E00E94B1
:1019A0005C058BE090E00E945C058EE090E0D9C081
:1019B0008BE693E00E94DA019170811115C00E94BC
:1019C00061050E9461058091F401813021F482E07B
:1019D0008093F401C4C0823009F0C1C083E08093D9
:1019E000F40187E090E0BDC087FF0DC00E94610553
:1019F0000E9461050E94610580E090E00E945C0504
:101A00008AEB91E0A3C086FF7FC00E9461059A83A4
:101A100089830E9461059C838B830E9461059E835C
:101A20008D8380E090E00E945C0589819A819C0111
:101A300044E0369527954A95E1F7122F11702091D1
:101A4000150230911602A901482359234217530762
:101A5000A9F48FEB91E00E942C06112311F084E58C
:101A600001C083E40E94040E8091F9019091FA0173
:101A700001969093FA018093F90141C020911302DD
:101A800030911402A9014823592342175307A9F49E
:101A900087EC91E00E942C06112311F084E501C02F
:101AA00083E40E94040E8091F7019091F801019661
:101AB0009093F8018093F70122C020911102309198
:101AC00012028223932382179307A9F48EEC91E0EC
:101AD0000E942C06112311F084E501C083E40E94CA
:101AE000040E8091F5019091F60101969093F60114
:101AF0008093F50104C085ED91E00E94A80580E087
:101B000090E00E945C052BC010E08BE693E00E9401
:101B1000A602892B61F00E946105FE013196E10F5A
:101B2000F11DE10FF11D918380831F5FEECF80E0F7
:101B300090E00E945C0589819A81019781F48B81F4
:101B40009C818130914059F48AED91E00E94A80572
:101B500006C062E370E080E090E00E94A7038DE0A1
:101B600090E090931A02809319020E945F0178CA54
:101B700086E493E00E940C078CE493E00E94E1026B
:101B80008BE693E00C94E102E9EAF2E01382128220
:101B900088EE93E0A0E0B0E084839583A683B783CA
:101BA0008EE191E09183808385EC90E09587848736
:101BB00084EC90E09787868780EC90E0918B808B17
:101BC00081EC90E0938B828B82EC90E0958B848B00
:101BD00086EC90E0978B868B118E128E138E148E6E
:101BE00020E049E068E08BE693E00E942B0421E0CE
:101BF00047E066E08CE493E00E942B046EE671E01F
:101C000086E493E00C941107CF93DF930E942106A2
:101C1000EC018CE691E00E9496058C0F9D1FDF91F0
:101C2000CF91089597FB072E16F4009407D077FD07
:101C300009D00E944E0E07FC05D03EF49095819588
:101C40009F4F0895709561957F4F0895A1E21A2ED8
:101C5000AA1BBB1BFD010DC0AA1FBB1FEE1FFF1F50
:101C6000A217B307E407F50720F0A21BB30BE40BA0
:101C7000F50B661F771F881F991F1A9469F76095E7
:101C80007095809590959B01AC01BD01CF010895A1
:101C9000EE0FFF1F0590F491E02D0994AA1BBB1BCA
:101CA00051E107C0AA1FBB1FA617B70710F0A61B5C
:101CB000B70B881F991F5A95A9F780959095BC017D
:101CC000CD010895CF93DF938230910510F482E027
:101CD00090E0E0918C03F0918D0320E030E0C0E0D3
:101CE000D0E0309711F14081518148175907C0F079
:101CF0004817590761F482819381209719F09B83DB
:101D00008A832BC090938D0380938C0326C021156A
:101D1000310519F04217530718F49A01BE01DF018B
:101D2000EF010280F381E02DDCCF2115310509F1AF
:101D3000281B390B2430310590F412968D919C911B
:101D400013976115710521F0FB019383828304C011
:101D500090938D0380938C03FD01329644C0FD0166
:101D6000E20FF31F81939193225031092D933C93FD
:101D70003AC020918A0330918B03232B41F42091A8
:101D800004013091050130938B0320938A03209145
:101D90000201309103012115310541F42DB73EB701
:101DA0004091060150910701241B350BE0918A03F5
:101DB000F0918B03E217F307A0F42E1B3F0B2817BB
:101DC000390778F0AC014E5F5F4F2417350748F0B4
:101DD0004E0F5F1F50938B0340938A03819391931F
:101DE00002C0E0E0F0E0CF01DF91CF9108950F93C2
:101DF0001F93CF93DF93009709F48CC0FC013297B7
:101E00001382128200918C0310918D03011511052C
:101E100081F420813181820F931F20918A033091B8
:101E20008B032817390779F5F0938B03E0938A0326
:101E300071C0D80140E050E0AE17BF0750F41296D1
:101E40002D913C911397AD012115310509F1D9016F
:101E5000F3CF9D01DA013383228360817181860F84
:101E6000971F8217930769F4EC0128813981260FA7
:101E7000371F2E5F3F4F318320838A819B8193835D
:101E80008283452B29F4F0938D03E0938C0342C0A9
:101E90001396FC93EE931297ED01499159919E018F
:101EA000240F351FE217F30771F480819181840FAD
:101EB000951F029611969C938E938281938113961F
:101EC0009C938E931297E0E0F0E0D80112968D91EA
:101ED0009C911397009719F0F8018C01F6CF8D9122
:101EE0009C9198012E5F3F4F820F931F20918A0390
:101EF00030918B032817390769F4309729F4109231
:101F00008D0310928C0302C01382128210938B03F4
:101F100000938A03DF91CF911F910F910895A0E064
:101F2000B0E0E5E9FFE00C94B710EC01009721F474
:101F3000CB010E94620EB8C0FC01E60FF71F9C01A6
:101F400022503109E217F30708F4ACC0D9010D9112
:101F50001C91119706171707B0F00530110508F40A
:101F60009FC0C80104978617970708F499C00250CC
:101F70001109061B170B019311936D937C93CF01ED
:101F80000E94F70E8DC05B01A01AB10A4C01800EB1
:101F9000911EA0918C03B0918D0340E050E0E12CA4
:101FA000F12C109709F44AC0A815B905D1F56D9028
:101FB0007C901197630182E0C80ED11CCA14DB0427
:101FC00080F1A3014A195B096A0182E0C80ED11CA5
:101FD0001296BC9012971396AC91B5E0CB16D10433
:101FE00040F0B282A38351834083D9016D937C93E7
:101FF0000AC00E5F1F4FC301800F911FF90191832B
:102000008083EB2DFA2FE114F10431F0D701139600
:10201000FC93EE93129744C0F0938D03E0938C03EE
:102020003FC08D919C9111974817590708F4AC0156
:102030007D0112960D90BC91A02DB3CF80918A03A3
:1020400090918B0388159905E1F446175707C8F45A
:102050008091020190910301009741F48DB79EB7E2
:102060004091060150910701841B950BE817F90771
:10207000C8F4F0938B03E0938A03F90171836083C2
:102080000FC0CB010E94620E7C01009759F0A8019D
:10209000BE010E945E10CE010E94F70EC70104C06F
:1020A000CE0102C080E090E0CDB7DEB7EEE00C9448
:1020B000D31081E090E0F8940C94EA10FB01DC016D
:1020C00002C001900D9241505040D8F70895FB0195
:1020D000DC018D91019080190110D9F3990B0895BD
:1020E000FB01DC0101900D920020E1F708951F93A0
:1020F000FC0199278827BC01E89411911032E9F37B
:10210000193010F01E30C8F31B3251F01D3249F463
:10211000689406C00E949E10610F711D811D911D63
:10212000119110531A30B0F33EF49095809570954C
:1021300061957F4F8F4F9F4F1F910895592F482FC3
:10214000372F262F660F771F881F991F660F771F5F
:10215000881F991F620F731F841F951F660F771FBB
:10216000881F991F08952F923F924F925F926F920E
:102170007F928F929F92AF92BF92CF92DF92EF9217
:10218000FF920F931F93CF93DF93CDB7DEB7CA1B98
:10219000DB0B0FB6F894DEBF0FBECDBF09942A88C3
:1021A000398848885F846E847D848C849B84AA846B
:1021B000B984C884DF80EE80FD800C811B81AA81F8
:1021C000B981CE0FD11D0FB6F894DEBF0FBECDBFC3
:1021D000ED01089510E0C2E7D0E004C0FE010E94C6
:0E21E000480E2196C337D107C9F7F894FFCFF8
:1021EE00020500008E0380000000000052026B0505
:1021FE00A602BE02DA01F401F50100000000F600AD
:10220E006B05BF009D00B1003D01000000001103F1
:10221E006B051103110311031103000000001103DC
:10222E006B05432E4D41584552524F5200432E538B
:10223E005441525400432E4C3A00432E43433A002D
:10224E00432E50433A00432E43533A000D0A0043A7
:10225E002E44503A00432E523A004552524F523AB3
:10226E003100432E54463A00432E54433A31303017
:10227E003A00432E54433A3035303A00432E5443FD
:10228E003A3032353A00432E5245414459002D0022
:10229E00432E443A00432E544300432E4F4B0043EB
:1022AE002E443130302E00432E4435302E00432E36
:1022BE004432352E00432E442100432E504F000051
:00000001FF
